:0D03DE00007F087E017DF3DDFEDEFCDFFA0E
:0103EB0022EF
:10036A001203CE1203EC12037E30B504D2A480F637
:04037A00C2A480F2A7
:10033900010B20010C20010D00010A000108000138
:020349000900A9
:1003CE00438901758CFFE4F58AD2A9D2AFD28C2273
:0E03EC00438910758DFFE4F58BD2ABD28E22C3
:03000B000201A649
:0401A600C0E0C0D025
:1001AA00758CFF758A000508E508C39440400375FD
:1001BA000800E508C3950B5036E50D64036030E589
:1001CA000D6404602AE50D64056024E50D6406608B
:1001DA001EE50AB4010FE50DB4020AD2A0C2A1C2FB
:1001EA00A2D2A38031C2A0D2A1D2A2C2A38027E503
:1001FA0008C3950B4020E50D6403601AE50D6404FD
:10020A006014E50D6405600EE50D64066008C2A081
:06021A00C2A1C2A2C2A3B2
:05022000D0D0D0E03257
:03001B00020225B9
:04022500C0E0C0D0A5
:10022900758DFF758B000509E509C3944040037579
:100239000900E509C3950C5036E50D64036030E506
:100249000D6404602AE50D64056024E50D6406600B
:100259001EE50AB4010FE50DB4010AC281D280C2BC
:1002690082D2838031D281C280D282C2838027E543
:1002790009C3950C4020E50D6403601AE50D64047B
:100289006014E50D6405600EE50D64066008C28121
:06029900C280C282C28394
:05029F00D0D0D0E032D8
:1002A400E4F50DEF64014E7007750B10750C102208
:1002B400EF64024E7007750B20750C2022EF640367
:1002C4004E7007750B30750C3022EF64044E7006C7
:0702D400750B3F750C3F2282
:1002DB00750D01EF64014E7009F50A750B30750C45
:1002EB002022EF64024E7007F50A750B30800CEF7D
:0F02FB0064034E7009750A01750B20750C1022F3
:10030A00750D02EF64014E7007F50A750B20800B1C
:10031A00EF64024E7009F50A750B10750C3022EF66
:0F032A0064034E7009750A01750B10750C3F22A4
:10037E00750D03C2A0C2A1C281C280C2A2C2A3C215
:04038E0082C2832282
:10039200750D04D2A0C2A1C281D280C2A2D2A3C2D0
:0403A20082D283225E
:1003A600750D05C2A0D2A1C281D280D2A2C2A3C2BB
:0403B60082D283224A
:1003BA00750D06D2A0C2A1D281C280C2A2D2A3D296
:0403CA0082C2832246
:06034B00010E00010F008D
:08000E007FB47E49DEFEDFFC39
:0100160022C7
:10035200E50F7003020392E50FB401030203A6E561
:080362000FB402031203BA22DA
:10001E0020B70920B60620B50330B43E20923B200F
:10002E00913820903520933230B7061203BA020170
:10003E000D30B609750A017F037E00801730B508B2
:10004E00E4F50A7F02FE800C20B40302010DE4F5F4
:10005E000A7F01FE12030A02010D20B74220B63FAD
:10006E0020B53C20B439209209209106209003300F
:10007E00932D3092061203A602010D309107E4F57E
:10008E000A7F028014309009750A017F037E00807A
:10009E000930936BE4F50A7F01FE1202DB806030BB
:1000AE00B71530B61230B50F30B40C30930930920C
:1000BE000630910320902430B40320931E30B409EF
:1000CE0030930630B50320921230B41830931530A9
:1000DE00B51230B60F30920C3090097F017E0012AF
:1000EE0002A4801B20B71820B61520B51220B40F1D
:1000FE0020930C209209209106209003120352E5C2
:0C010E000E650D6006850E0F850D0E229B
:0300000002011AE0
:0C011A00787FE4F6D8FD75810F020161CA
:1001260002036AE493A3F8E493A34003F68001F282
:1001360008DFF48029E493A3F85407240CC8C333DA
:10014600C4540F4420C8834004F456800146F6DFA9
:10015600E4800B0102040810204080900339E47EFD
:10016600019360BCA3FF543F30E509541FFEE4939E
:10017600A360010ECF54C025E060A840B8E493A365
:10018600FAE493A3F8E493A3C8C582C8CAC583CA90
:10019600F0A3C8C582C8CAC583CADFE9DEE780BE48
:0103510000AB
:00000001FF
