:0D03AA00007F087E017DF3DDFEDEFCDFFA42
:0103B7002223
:0B000E0012039A1203B812034A80FB91
:10031900010B20010C20010D00010A000108000158
:020329000900C9
:10039A00438901758CFFE4F58AD2A9D2AFD28C22A7
:0E03B800438910758DFFE4F58BD2ABD28E22F7
:03000B0002018C63
:04018C00C0E0C0D03F
:10019000758CFF758A000508E508C3944040037517
:1001A0000800E508C3950B5036E50D64036030E5A3
:1001B0000D6404602AE50D64056024E50D640660A5
:1001C0001EE50AB4010FE50DB4020AD2A0C2A1C215
:1001D000A2D2A38031C2A0D2A1D2A2C2A38027E51D
:1001E00008C3950B4020E50D6403601AE50D640417
:1001F0006014E50D6405600EE50D64066008C2A09C
:06020000C2A1C2A2C2A3CC
:05020600D0D0D0E03271
:03001B0002020BD3
:04020B00C0E0C0D0BF
:10020F00758DFF758B000509E509C3944040037593
:10021F000900E509C3950C5036E50D64036030E520
:10022F000D6404602AE50D64056024E50D64066025
:10023F001EE50AB4010FE50DB4010AC281D280C2D6
:10024F0082D2838031D281C280D282C2838027E55D
:10025F0009C3950C4020E50D6403601AE50D640495
:10026F006014E50D6405600EE50D64066008C2813B
:06027F00C280C282C283AE
:05028500D0D0D0E032F2
:10028A00E4F50DEF64014E7007750B10750C102222
:10029A00EF64024E7007750B20750C2022EF640381
:1002AA004E7007750B30750C3022EF64044E7006E1
:0702BA00750B3F750C3F229C
:1002C100750D01EF64014E7004F50A8009EF6402B7
:1002D1004E700A750A01750B30750C1022EF64031C
:0D02E1004E7009750A01750B30750C202256
:1002EE00750D02EF64014E7004F50A8009EF640289
:1002FE004E7008750A01750B10800CEF64034E707A
:0B030E0009750A01750B20750C3022E8
:10034A00750D03C2A0C2A1C281C280C2A2C2A3C249
:04035A0082C28322B6
:10035E00750D04D2A0C2A1C281D280C2A2D2A3C204
:04036E0082D2832292
:10037200750D05C2A0D2A1C281D280D2A2C2A3C2EF
:0403820082D283227E
:10038600750D06D2A0C2A1D281C280C2A2D2A3D2CA
:0403960082C283227A
:06032B00010E00010F00AD
:05000300007F2BDFFE71
:0100080022D5
:10033200E50F700302035EE50FB40103020372E5E9
:080342000FB40203120386222E
:10001E0020B70920B60620B50330B4332092302025
:10002E00912D20902A20932730B7061203860200C6
:10003E00F030B6047F03800F30B5047F02800820B5
:10004E00B4030200F07F017E001202EE0200F020E7
:10005E00B73020B62D20B52A20B427209209209142
:10006E000620900330931B3090051203728073307C
:10007E0091047F038005D392927F027E001202C10B
:10008E00806030B71530B61230B50F30B40C3093E7
:10009E000930920630910320902430B40320931E31
:1000AE0030B40930930630B50320921230B41830B4
:1000BE00931530B51230B60F30920C3090097F0385
:1000CE007E0012028A801B20B71820B61520B512AA
:1000DE0020B40F20930C2092092091062090031239
:1000EE000332E50E650D6009120003850E0F850DB6
:0200FE000E22D0
:03000000020100FA
:0C010000787FE4F6D8FD75810F020147FE
:10010C0002000EE493A3F8E493A34003F68001F2FB
:10011C0008DFF48029E493A3F85407240CC8C333F4
:10012C00C4540F4420C8834004F456800146F6DFC3
:10013C00E4800B0102040810204080900319E47E37
:10014C00019360BCA3FF543F30E509541FFEE493B8
:10015C00A360010ECF54C025E060A840B8E493A37F
:10016C00FAE493A3F8E493A3C8C582C8CAC583CAAA
:10017C00F0A3C8C582C8CAC583CADFE9DEE780BE62
:0103310000CB
:00000001FF
