:0D03E700007F087E017DF3DDFEDEFCDFFA05
:0103F40022E6
:100339001203D71203F520B708E4F50A12038780E0
:0D034900F5750A017F037E001202DB80E9DA
:10035600010B20010C20010D00010A00010800011B
:0203660009008C
:1003D700438901758CFFE4F58AD2A9D2AFD28C226A
:0E03F500438910758DFFE4F58BD2ABD28E22BA
:03000B000201A649
:0401A600C0E0C0D025
:1001AA00758CFF758A000508E508C39440400375FD
:1001BA000800E508C3950B5036E50D64036030E589
:1001CA000D6404602AE50D64056024E50D6406608B
:1001DA001EE50AB4010FE50DB4020AD293C292C217
:1001EA0080D2818031C293D292D280C2818027E5A7
:1001FA0008C3950B4020E50D6403601AE50D6404FD
:10020A006014E50D6405600EE50D64066008C2938E
:06021A00C292C280C28105
:05022000D0D0D0E03257
:03001B00020225B9
:04022500C0E0C0D0A5
:10022900758DFF758B000509E509C3944040037579
:100239000900E509C3950C5036E50D64036030E506
:100249000D6404602AE50D64056024E50D6406600B
:100259001EE50AB4010FE50DB4010AC291D290C29C
:1002690082D2838031D291C290D282C2838027E523
:1002790009C3950C4020E50D6403601AE50D64047B
:100289006014E50D6405600EE50D64066008C29111
:06029900C290C282C28384
:05029F00D0D0D0E032D8
:1002A400E4F50DEF64014E7007750B10750C102208
:1002B400EF64024E7007750B20750C2022EF640367
:1002C4004E7007750B30750C3022EF64044E7006C7
:0702D400750B3F750C3F2282
:1002DB00750D01EF64014E7009F50A750B30750C45
:1002EB002022EF64024E7007F50A750B30800CEF7D
:0F02FB0064034E7009750A01750B20750C1022F3
:10030A00750D02EF64014E7007F50A750B20800B1C
:10031A00EF64024E7009F50A750B10750C3022EF66
:0F032A0064034E7009750A01750B10750C3F22A4
:10038700750D03C293C292C291C290C280C281C24C
:0403970082C2832279
:10039B00750D04D293C292C291D290C280D281C207
:0403AB0082D2832255
:1003AF00750D05C293D292C291D290D280C281C2F2
:0403BF0082D2832241
:1003C300750D06D293C292D291C290C280D281D2CD
:0403D30082C283223D
:06036800010E00010F0070
:10036F00E50F700302039BE50FB401030203AFE532
:08037F000FB402031203C322B4
:10001E0020940920950620960330973E20853B209C
:10002E0086382087352084323094061203C30201AD
:10003E000D309509750A017F037E008017309608F2
:10004E00E4F50A7F02FE800C20970302010DE4F511
:10005E000A7F01FE12030A02010D20944220953FF1
:10006E0020963C209739208509208606208703306C
:10007E00842D3085061203AF02010D308607E4F59C
:10008E000A7F028014308709750A017F037E008083
:10009E000930846BE4F50A7F01FE1202DB806030CA
:1000AE00941530951230960F30970C3084093085A8
:1000BE000630860320872430970320841E3097094C
:1000CE003084063096032085123097183084153010
:1000DE00961230950F30850C3087097F017E001205
:1000EE0002A4801B20941820951520961220970F9D
:1000FE0020840C20850920860620870312036FE5D5
:0C010E000E650D6006850E0F850D0E229B
:0300000002011AE0
:0C011A00787FE4F6D8FD75810F020161CA
:10012600020339E493A3F8E493A34003F68001F2B3
:1001360008DFF48029E493A3F85407240CC8C333DA
:10014600C4540F4420C8834004F456800146F6DFA9
:10015600E4800B0102040810204080900356E47EE0
:10016600019360BCA3FF543F30E509541FFEE4939E
:10017600A360010ECF54C025E060A840B8E493A365
:10018600FAE493A3F8E493A3C8C582C8CAC583CA90
:10019600F0A3C8C582C8CAC583CADFE9DEE780BE48
:01036E00008E
:00000001FF
