:0B000E0012036D12037D12001E80FB28
:1002EC00010B20010C20010D00010A000108000186
:0202FC000900F7
:10036D00438901758CFFE4F58AD2A9D2AFD28C22D4
:0E037D00438910758DFFE4F58BD2ABD28E2232
:03000B0002015F90
:04015F00C0E0C0D06C
:10016300758CFF758A000508E508C3944040037544
:100173000800E508C3950B5036E50D64036030E5D0
:100183000D6404602AE50D64056024E50D640660D2
:100193001EE50AB4010FE50DB4020AD2A0C2A1C242
:1001A300A2D2A38031C2A0D2A1D2A2C2A38027E54A
:1001B30008C3950B4020E50D6403601AE50D640444
:1001C3006014E50D6405600EE50D64066008C2A0C9
:0601D300C2A1C2A2C2A3FA
:0501D900D0D0D0E0329F
:03001B000201DE01
:0401DE00C0E0C0D0ED
:1001E200758DFF758B000509E509C39440400375C1
:1001F2000900E509C3950C5036E50D64036030E54E
:100202000D6404602AE50D64056024E50D64066052
:100212001EE50AB4010FE50DB4010AC281D280C203
:1002220082D2838031D281C280D282C2838027E58A
:1002320009C3950C4020E50D6403601AE50D6404C2
:100242006014E50D6405600EE50D64066008C28168
:06025200C280C282C283DB
:05025800D0D0D0E0321F
:10025D00E4F50DEF64014E7007750B10750C10224F
:10026D00EF64024E7007750B20750C2022EF6403AE
:10027D004E7007750B30750C3022EF64044E70060E
:07028D00750B3F750C3F22C9
:10029400750D01EF64014E7004F50A8009EF6402E4
:1002A4004E700A750A01750B30750C1022EF640349
:0D02B4004E7009750A01750B30750C202283
:1002C100750D02EF64014E7004F50A8009EF6402B6
:1002D1004E7008750A01750B10800CEF64034E70A7
:0B02E10009750A01750B20750C302216
:10031D00750D03C2A0C2A1C281C280C2A2C2A3C276
:04032D0082C28322E3
:10033100750D04D2A0C2A1C281D280C2A2D2A3C231
:0403410082D28322BF
:10034500750D05C2A0D2A1C281D280D2A2C2A3C21C
:0403550082D28322AB
:10035900750D06D2A0C2A1D281C280C2A2D2A3D2F7
:0403690082C28322A7
:0602FE00010E00010F00DB
:10030500E50F7003020331E50FB40103020345E570
:080315000FB402031203592288
:10001E0030B70630B60320B52F30912C30902930F2
:10002E00922620B709E4F50A1203590200C620B63B
:10003E0009750A017F027E00800920B57BE4F50A6E
:10004E007F01FE1202C1807030B72B30B62830B55A
:10005E002530910630900320921C209008E4F50A7A
:10006E001203458053C3929120924DE4F50A7F010D
:10007E00FE120294804220B70F20B60C20B5092044
:10008E00920620910330901220B50330920C20B5C9
:10009E001220920F20910C20B7097F027E001202CF
:1000AE005D801530B71230B60F30B50C3092093076
:1000BE009106309003120305E50E650D6006850E60
:0500CE000F850D0E225C
:030000000200D328
:0C00D300787FE4F6D8FD75810F02011A59
:1000DF0002000EE493A3F8E493A34003F68001F229
:1000EF0008DFF48029E493A3F85407240CC8C33322
:1000FF00C4540F4420C8834004F456800146F6DFF1
:10010F00E4800B01020408102040809002ECE47E92
:10011F00019360BCA3FF543F30E509541FFEE493E5
:10012F00A360010ECF54C025E060A840B8E493A3AC
:10013F00FAE493A3F8E493A3C8C582C8CAC583CAD7
:10014F00F0A3C8C582C8CAC583CADFE9DEE780BE8F
:0103040000F8
:00000001FF
