:0E03790012036912038712021A12001E80F886
:1002D900010C20010D20010E00010B00010A000193
:0502E9000800010900FE
:10036900438901758CFFE4F58AD2A9D2AFD28C22D8
:0E038700438910758DFFE4F58BD2ABD28E2228
:03000B0002013CB3
:04013C00C0E0C0D08F
:10014000758CFF758A000508E508C3944040037567
:100150000800E508C3950C502EE50E64036028E501
:100160000E64046022E50B701EE50AB4010FE50E73
:10017000B4020AD2A0C2A1C2A4D2A58029C2A0D230
:10018000A1D2A4C2A5801FE508C3950C4018E50EB6
:1001900064036012E50E6404600CE50B7008C2A0F5
:0601A000C2A1C2A4C2A529
:0501A600D0D0D0E032D2
:03001B000201AB34
:0401AB00C0E0C0D020
:1001AF00758DFF758B000509E509C39440400375F4
:1001BF000900E509C3950D502EE50E64036028E58F
:1001CF000E64046022E50B701EE50AB4010FE50E04
:1001DF00B4010AC2A2D2A3C2A6D2A78029D2A2C2B8
:1001EF00A3D2A6C2A7801FE509C3950D4018E50E3F
:1001FF0064036012E50E6404600CE50B7008C2A284
:06020F00C2A3C2A6C2A7B3
:05021500D0D0D0E03262
:1002AD00E4F50EF50BEF64014E7007750C10750D2E
:1002BD001022EF64024E7007750C20750D2022EF91
:0C02CD0064034E7006750C3F750D3F2257
:10024F00E4F50B750E01EF64014E7004F50A800999
:10025F00EF64024E700A750A01750C30750D20227D
:10026F00EF64034E7009750A01750C30750D30225D
:10027F00E4F50B750E02EF64014E7004F50A800968
:10028F00EF64024E7008750A01750C20800CEF6444
:0E029F00034E7009750A01750C30750D302282
:10031600E4F50B750E03C2A0C2A1C2A2C2A3C2A479
:07032600C2A5C2A6C2A72276
:10032D00750B01D2A0C2A1C2A2D2A3C2A4D2A5C2F2
:04033D00A6D2A7227B
:10034100750B01C2A0D2A1C2A2D2A3D2A4C2A5C2DE
:04035100A6D2A72267
:10035500750B01D2A0C2A1D2A2C2A3C2A4D2A5D2BA
:04036500A6C2A72263
:0C02EE00010F00011200011000011101BD
:0D039500007F2B7E067DCBDDFEDEFCDFFA57
:0103A2002238
:05000300007F2BDFFE71
:0100080022D5
:08000E007F637E9ADEFEDFFC39
:0100160022C7
:1002FB00750E05E512700302032DE512B40103021E
:0B030B000341E512B402031203552267
:10001E0020840620850330832420812120821E2007
:10002E00801B308405120355802B3085047F02809F
:10003E00053083647F017E0012027F805B20842D59
:10004E0020852A20832720810620820330801E30BF
:10005E00800812034112000E803E3081047F028020
:10006E00053082347F017E0012024F802B30840FC8
:10007E0030850C30830930820630810320801230A7
:10008E00830320820C30831030820D30810A30843D
:10009E00077F027E001202ADE50F650E60031200AF
:0200AE0003222B
:10021A0030840F30850C3083093082063081032008
:10022A00800C30851330831030820D30810AE5113D
:10023A00B401050510E4F511E50F650E6006850F9A
:05024A0012850E0F22D9
:030000000200B04B
:0C00B000787FE4F6D8FD7581120200F79D
:1000BC00020379E493A3F8E493A34003F68001F2DE
:1000CC0008DFF48029E493A3F85407240CC8C33345
:1000DC00C4540F4420C8834004F456800146F6DF14
:1000EC00E4800B01020408102040809002D9E47EC9
:1000FC00019360BCA3FF543F30E509541FFEE49309
:10010C00A360010ECF54C025E060A840B8E493A3CF
:10011C00FAE493A3F8E493A3C8C582C8CAC583CAFA
:10012C00F0A3C8C582C8CAC583CADFE9DEE780BEB2
:0102FA000003
:00000001FF
