:0B000E0012033C12034C12001E80FB8A
:1002BB00010B20010C20010D00010A0001080001B7
:0202CB00090028
:10033C00438901758CFFE4F58AD2A9D2AFD28C2205
:0E034C00438910758DFFE4F58BD2ABD28E2263
:03000B0002014FA0
:04014F00C0E0C0D07C
:10015300758CFF758A000508E508C3944040037554
:100163000800E508C3950B5036E50D64036030E5E0
:100173000D6404602AE50D64056024E50D640660E2
:100183001EE50AB4010FE50DB4020AD2A0C2A1C252
:10019300A2D2A38031C2A0D2A1D2A2C2A38027E55A
:1001A30008C3950B4020E50D6403601AE50D640454
:1001B3006014E50D6405600EE50D64066008C2A0D9
:0601C300C2A1C2A2C2A30A
:0501C900D0D0D0E032AF
:03001B000201CE11
:0401CE00C0E0C0D0FD
:1001D200758DFF758B000509E509C39440400375D1
:1001E2000900E509C3950C5036E50D64036030E55E
:1001F2000D6404602AE50D64056024E50D64066063
:100202001EE50AB4010FE50DB4010AC281D280C213
:1002120082D2838031D281C280D282C2838027E59A
:1002220009C3950C4020E50D6403601AE50D6404D2
:100232006014E50D6405600EE50D64066008C28178
:06024200C280C282C283EB
:05024800D0D0D0E0322F
:10024D00E4F50DEF64014E7007750B10750C10225F
:10025D00EF64024E7007750B20750C2022EF6403BE
:0A026D004E7006750B3F750C3F2222
:10027700750D01EF64014E700A750A01750B307533
:100287000C1022EF64024E7009750A01750B307568
:030297000C202216
:10029A00750D02EF64014E7008750A01750B108026
:1002AA000CEF64024E7009750A01750B20750C304B
:0102BA002221
:1002EC00750D03C2A0C2A1C281C280C2A2C2A3C2A8
:0402FC0082C2832215
:10030000750D04D2A0C2A1C281D280C2A2D2A3C262
:0403100082D28322F0
:10031400750D05C2A0D2A1C281D280D2A2C2A3C24D
:0403240082D28322DC
:10032800750D06D2A0C2A1D281C280C2A2D2A3D228
:0403380082C28322D8
:0602CD00010E00010F000C
:1002D400E50F7003020300E50FB40103020314E504
:0802E4000FB4020312032822EB
:10001E0030B70630B60320B52430912130901E3013
:10002E00921B20B705120328807E20B6047F028023
:10003E000520B5747F017E0012029A806B30B726C0
:10004E0030B62330B5203091063090032092172021
:10005E0090051203148051C3929120924B7F017E22
:10006E0000120277804220B70F20B60C20B509206F
:10007E00920620910330901220B50330920C20B5D9
:10008E001220920F20910C20B7097F027E001202DF
:10009E004D801530B71230B60F30B50C3092093096
:1000AE0091063090031202D4E50E650D6006850EA2
:0500BE000F850D0E226C
:030000000200C338
:0C00C300787FE4F6D8FD75810F02010A79
:1000CF0002000EE493A3F8E493A34003F68001F239
:1000DF0008DFF48029E493A3F85407240CC8C33332
:1000EF00C4540F4420C8834004F456800146F6DF01
:1000FF00E4800B01020408102040809002BBE47ED4
:10010F00019360BCA3FF543F30E509541FFEE493F5
:10011F00A360010ECF54C025E060A840B8E493A3BC
:10012F00FAE493A3F8E493A3C8C582C8CAC583CAE7
:10013F00F0A3C8C582C8CAC583CADFE9DEE780BE9F
:0102D300002A
:00000001FF
