:0B000E0012033512034512001E80FB98
:1002B400010B20010C20010D00010A0001080001BE
:0202C40009002F
:10033500438901758CFFE4F58AD2A9D2AFD28C220C
:0E034500438910758DFFE4F58BD2ABD28E226A
:03000B0002015C93
:04015C00C0E0C0D06F
:10016000758CFF758A000508E508C3944040037547
:100170000800E508C3950B502AE50D64036024E5EB
:100180000D6404601EE50AB4010FE50DB4020AD245
:10019000A0C2A1C2A4D2A58025C2A0D2A1D2A4C2CD
:1001A000A5801BE508C3950B4014E50D6403600EA4
:0E01B000E50D64046008C2A0C2A1C2A4C2A5ED
:0501BE00D0D0D0E032BA
:03001B000201C31C
:0401C300C0E0C0D008
:1001C700758DFF758B000509E509C39440400375DC
:1001D7000900E509C3950C502AE50D64036024E581
:1001E7000D6404601EE50AB4010FE50DB4010AC2EF
:1001F700A2D2A3C2A6D2A78025D2A2C2A3D2A6C248
:10020700A7801BE509C3950C4014E50D6403600E38
:0E021700E50D64046008C2A2C2A3C2A6C2A77D
:05022500D0D0D0E03252
:10028A00E4F50DEF64014E7007750B10750C102222
:10029A00EF64024E7007750B20750C2022EF640381
:0A02AA004E7006750B3F750C3F22E5
:10022A00750D01EF64014E7009F50A750B20750C06
:10023A001022EF64024E7008750A01750B20800CBB
:10024A00EF64034E7009750A01750B3F750C202285
:10025A00750D02EF64014E7007F50A750B10800CDC
:10026A00EF64024E700A750A01750B20750C202284
:10027A00EF64034E7009750A01750B20750C3F2255
:1002E500750D03C2A0C2A1C2A2C2A3C2A4C2A5C267
:0402F500A6C2A722D4
:1002F900750D04D2A0C2A1C2A2D2A3C2A4D2A5C222
:04030900A6D2A722AF
:10030D00750D05C2A0D2A1C2A2D2A3D2A4C2A5C20C
:04031D00A6D2A7229B
:10032100750D06D2A0C2A1D2A2C2A3C2A4D2A5D2E7
:04033100A6C2A72297
:0602C600010E00010F0013
:1002CD00E50F70030202F9E50FB4010302030DE51A
:0802DD000FB4020312032122F9
:10001E002084062085033083262081232082202001
:10002E00801D3084047F03800F3085047F0280089A
:10003E002083030200C37F017E0012025A807620C5
:10004E00842C20852920832620810620820330805F
:10005E001D3080077F037E0012022A3081047F024A
:10006E0080053082507F017E0012022A8047308444
:10007E000F30850C308309308206308103208012C8
:10008E0030830320820C30831230820F30810C308B
:10009E0084097F027E0012028A801A208414208531
:1000AE001120830E20820B2081082080051202CDA4
:1000BE0080031202E5E50E650D6006850E0F850DB7
:0200CE000E2200
:030000000200D02B
:0C00D000787FE4F6D8FD75810F0201175F
:1000DC0002000EE493A3F8E493A34003F68001F22C
:1000EC0008DFF48029E493A3F85407240CC8C33325
:1000FC00C4540F4420C8834004F456800146F6DFF4
:10010C00E4800B01020408102040809002B4E47ECD
:10011C00019360BCA3FF543F30E509541FFEE493E8
:10012C00A360010ECF54C025E060A840B8E493A3AF
:10013C00FAE493A3F8E493A3C8C582C8CAC583CADA
:10014C00F0A3C8C582C8CAC583CADFE9DEE780BE92
:0102CC000031
:00000001FF
