:0B000E0012039D1203AD12001E80FBC8
:10031C00010B20010C20010D00010A000108000155
:02032C000900C6
:10039D00438901758CFFE4F58AD2A9D2AFD28C22A4
:0E03AD00438910758DFFE4F58BD2ABD28E2202
:03000B0002018F60
:04018F00C0E0C0D03C
:10019300758CFF758A000508E508C3944040037514
:1001A3000800E508C3950B5036E50D64036030E5A0
:1001B3000D6404602AE50D64056024E50D640660A2
:1001C3001EE50AB4010FE50DB4020AD2A0C2A1C212
:1001D300A2D2A38031C2A0D2A1D2A2C2A38027E51A
:1001E30008C3950B4020E50D6403601AE50D640414
:1001F3006014E50D6405600EE50D64066008C2A099
:06020300C2A1C2A2C2A3C9
:05020900D0D0D0E0326E
:03001B0002020ED0
:04020E00C0E0C0D0BC
:10021200758DFF758B000509E509C3944040037590
:100222000900E509C3950C5036E50D64036030E51D
:100232000D6404602AE50D64056024E50D64066022
:100242001EE50AB4010FE50DB4010AC281D280C2D3
:1002520082D2838031D281C280D282C2838027E55A
:1002620009C3950C4020E50D6403601AE50D640492
:100272006014E50D6405600EE50D64066008C28138
:06028200C280C282C283AB
:05028800D0D0D0E032EF
:10028D00E4F50DEF64014E7007750B10750C10221F
:10029D00EF64024E7007750B20750C2022EF64037E
:1002AD004E7007750B30750C3022EF64044E7006DE
:0702BD00750B3F750C3F2299
:1002C400750D01EF64014E7004F50A8009EF6402B4
:1002D4004E700A750A01750B30750C1022EF640319
:0D02E4004E7009750A01750B30750C202253
:1002F100750D02EF64014E7004F50A8009EF640286
:100301004E7008750A01750B10800CEF64034E7076
:0B03110009750A01750B20750C3022E5
:10034D00750D03C2A0C2A1C281C280C2A2C2A3C246
:04035D0082C28322B3
:10036100750D04D2A0C2A1C281D280C2A2D2A3C201
:0403710082D283228F
:10037500750D05C2A0D2A1C281D280D2A2C2A3C2EC
:0403850082D283227B
:10038900750D06D2A0C2A1D281C280C2A2D2A3D2C7
:0403990082C2832277
:06032E00010E00010F00AA
:05000300007F2BDFFE71
:0100080022D5
:10033500E50F7003020361E50FB40103020375E5E0
:080345000FB402031203892228
:10001E0030B70930B60630B50320B43330923030E5
:10002E00912D30902A30932720B7061203890200B3
:10003E00F320B6047F03800F20B5047F02800830C2
:10004E00B4030200F37F017E001202F10200F330CE
:10005E00B73330B63030B52D30B42A3092093091E6
:10006E000630900320931E20900512037580762093
:10007E0091047F038008C392922093697F017E00D2
:10008E001202C4806020B71520B61220B50F20B41E
:10009E000C20930920920620910330902420B40363
:1000AE0030931E20B40920930620B50330921220FF
:1000BE00B41820931520B51220B60F20920C209064
:1000CE00097F037E0012028D801B30B71830B615E3
:1000DE0030B51230B40F30930C3092093091063097
:1000EE009003120335E50E650D6009850E0F850D23
:0500FE000E12000322B8
:03000000020103F7
:0C010300787FE4F6D8FD75810F02014AF8
:10010F0002000EE493A3F8E493A34003F68001F2F8
:10011F0008DFF48029E493A3F85407240CC8C333F1
:10012F00C4540F4420C8834004F456800146F6DFC0
:10013F00E4800B010204081020408090031CE47E31
:10014F00019360BCA3FF543F30E509541FFEE493B5
:10015F00A360010ECF54C025E060A840B8E493A37C
:10016F00FAE493A3F8E493A3C8C582C8CAC583CAA7
:10017F00F0A3C8C582C8CAC583CADFE9DEE780BE5F
:0103340000C8
:00000001FF
