:0E037B0012036B1203891202BD12001E80F8DD
:1002DE00010C20010D20010E00010B00010A00018E
:0502EE000800010900F9
:10036B00438901758CFFE4F58AD2A9D2AFD28C22D6
:0E038900438910758DFFE4F58BD2ABD28E2226
:03000B000201539C
:04015300C0E0C0D078
:10015700758CFF758A000508E508C3944040037550
:100167000800E508C3950C502EE50E64036028E5EA
:100177000E64046022E50B701EE50AB4010FE50E5C
:10018700B4020AD2A0C2A1C2A4D2A58029C2A0D219
:10019700A1D2A4C2A5801FE508C3950C4018E50E9F
:1001A70064036012E50E6404600CE50B7008C2A0DE
:0601B700C2A1C2A4C2A512
:0501BD00D0D0D0E032BB
:03001B000201C21D
:0401C200C0E0C0D009
:1001C600758DFF758B000509E509C39440400375DD
:1001D6000900E509C3950D502EE50E64036028E578
:1001E6000E64046022E50B701EE50AB4010FE50EED
:1001F600B4010AC2A2D2A3C2A6D2A78029D2A2C2A1
:10020600A3D2A6C2A7801FE509C3950D4018E50E27
:1002160064036012E50E6404600CE50B7008C2A26C
:06022600C2A3C2A6C2A79C
:05022C00D0D0D0E0324B
:10029100E4F50EF50BEF64014E7007750C10750D4A
:1002A1001022EF64024E7007750C30750D3022EF8D
:0C02B10064034E7006750C3F750D3F2273
:10023100E4F50B750E01EF64014E7004F50A8009B7
:10024100EF64024E700A750A01750C30750D20229B
:10025100EF64034E7009750A01750C3F750D30226C
:10026100E4F50B750E02EF64014E7004F50A800986
:10027100EF64024E700A750A01750C20750D30226B
:10028100EF64034E7009750A01750C30750D3F223C
:10031800E4F50B750E03C2A0C2A1C2A2C2A3C2A477
:07032800C2A5C2A6C2A72274
:10032F00750B01D2A0C2A1C2A2D2A3C2A4D2A5C2F0
:04033F00A6D2A72279
:10034300750B01C2A0D2A1C2A2D2A3D2A4C2A5C2DC
:04035300A6D2A72265
:10035700750B01D2A0C2A1D2A2C2A3C2A4D2A5D2B8
:04036700A6C2A72261
:0902F300010F00011100011000CF
:05000300007F2BDFFE71
:0100080022D5
:0D039700007F087E017DF3DDFEDEFCDFFA55
:0103A4002236
:1002FD00120318E511700302032FE511B401030277
:0B030D000343E511B402031203572262
:10001E00E50F650E6009120003850F11850E0F2086
:10002E00840620850330832120811E20821B2080A0
:10003E00183084047F03800C3085047F02800530E5
:10004E0083767F017E0002026120842A208527208C
:10005E00832420810620820330801B3080077F039B
:10006E007E001202313081047F0280053082497F8A
:10007E00017E0002023130840F30850C308309304E
:10008E00820630810320801230830320820C30835D
:10009E001030820D30810A3084077F027E0002020A
:1000AE009120841120850E20830B2082082081054B
:0900BE0020800280001202FD22E4
:1002BD0030840F30850C3083093082063081032065
:1002CD00800C30850B30830830820530810205109B
:0102DD0022FE
:030000000200C734
:0C00C700787FE4F6D8FD75811102010E6F
:1000D30002037BE493A3F8E493A34003F68001F2C5
:1000E30008DFF48029E493A3F85407240CC8C3332E
:1000F300C4540F4420C8834004F456800146F6DFFD
:10010300E4800B01020408102040809002DEE47EAC
:10011300019360BCA3FF543F30E509541FFEE493F1
:10012300A360010ECF54C025E060A840B8E493A3B8
:10013300FAE493A3F8E493A3C8C582C8CAC583CAE3
:10014300F0A3C8C582C8CAC583CADFE9DEE780BE9B
:0102FC000001
:00000001FF
