:03030000011700E2
:0D03E100007F037E1A7DDFDDFEDEFCDFFA0B
:0103EE0022EC
:1002A8001203E11203D11203EF12032B7F137EEF27
:1002B8007D027C00AB0FAA0EA90DA80CD31203C0B7
:0C02C800400512036D80E212001E80DD74
:10030300011020011120011200010B00010A000459
:0B0313000C00000000010800010900C0
:1003D100438901758CFFE4F58AD2A9D2AFD28C2270
:0E03EF00438910758DFFE4F58BD2ABD28E22C0
:03000B0002014BA4
:04014B00C0E0C0D080
:10014F00758CFF758A000508E50F2401F50FE4355E
:10015F000EF50EE4350DF50DE4350CF50CE508C381
:10016F0094404003750800E508C39510502EE51222
:10017F0064036028E51264046022E50B701EE50A33
:10018F00B4010FE512B4020AD2A0C2A1C2A4D2A533
:10019F008029C2A0D2A1D2A4C2A5801FE508C39511
:1001AF00104018E51264036012E5126404600CE558
:0B01BF000B7008C2A0C2A1C2A4C2A520
:0501CA00D0D0D0E032AE
:03001B000201CF10
:0401CF00C0E0C0D0FC
:1001D300758DFF758B000509E509C39440400375D0
:1001E3000900E509C39511502EE51264036028E563
:1001F3001264046022E50B701EE50AB4010FE512D8
:10020300B4010AC2A2D2A3C2A6D2A78029D2A2C293
:10021300A3D2A6C2A7801FE509C395114018E51212
:1002230064036012E5126404600CE50B7008C2A25B
:06023300C2A3C2A6C2A78F
:05023900D0D0D0E0323E
:1002D400E4F512F50BEF64014E70077510147511F7
:1002E4001422EF64024E700775103475113422EF36
:0C02F40064034E700675103F75113F2228
:10023E00E4F50B751201EF64014E7009F50A7510A5
:10024E003075112022EF64024E700A750A01751086
:10025E002675111022EF64034E7009750A01751090
:05026E0024751130228F
:10027300E4F50B751202EF64014E7009F50A75106F
:100283002075113022EF64024E700A750A01751051
:100293001075112622EF64034E7009750A0175105B
:0502A30030751124225A
:10036D00E4F50B751203C2A0C2A1C2A2C2A3C2A41E
:07037D00C2A5C2A6C2A7221F
:10038400750B01D2A0C2A1C2A2D2A3C2A4D2A5C29B
:04039400A6D2A72224
:10039800750B01C2A0D2A1C2A2D2A3D2A4C2A5C287
:0403A800A6D2A72210
:1003AC00750B01D2A0C2A1D2A2C2A3C2A4D2A5D263
:0403BC00A6C2A7220C
:0C031E000113000116000114000115017C
:08000E007F637E9ADEFEDFFC39
:0100160022C7
:10035200751205E5167003020384E516B401030263
:0B0362000398E516B402031203AC225E
:10001E00E5136512600685131685121320850620DA
:10002E00840330831F20811C208219208016308586
:10003E0002803C3084047F0280053083737F017E12
:10004E000002027320852520842220831F20810632
:10005E0020820330801630800280203081047F029F
:10006E00800530824B7F017E0002023E3085097F83
:10007E00037E00120273800A30800A7F037E001214
:10008E00023E02000E30850F30840C308309308220
:10009E000630810320801230830320820C308310BF
:1000AE0030820D30810A3084077F027E001202D426
:0100BE00221F
:10032B0030841430831130820E30810BE515B4010B
:10033B00060514E4F5152230840930830630820358
:07034B00208103751501225A
:030000000200BF3C
:0C00BF00787FE4F6D8FD75811702010679
:1003C000EB9FF5F0EA9E42F0E99D42F0E89C45F093
:0103D000220A
:1000CB000202A8E493A3F8E493A34003F68001F2A1
:1000DB0008DFF48029E493A3F85407240CC8C33336
:1000EB00C4540F4420C8834004F456800146F6DF05
:1000FB00E4800B0102040810204080900300E47E92
:10010B00019360BCA3FF543F30E509541FFEE493F9
:10011B00A360010ECF54C025E060A840B8E493A3C0
:10012B00FAE493A3F8E493A3C8C582C8CAC583CAEB
:10013B00F0A3C8C582C8CAC583CADFE9DEE780BEA3
:01032A0000D2
:00000001FF
