:03032C00011301B9
:0E03CF0000007F167E037DE3DDFEDEFCDFFA1C
:0103DD0022FD
:09000E00007F087E84DEFEDFFCA9
:0100170022C6
:10022E001203CF1203BF1203DE12029CE510B403B9
:10023E0013E513B4010EE4F5137F03FE120300124F
:10024E00000E80E5E510C39406400712036CD290B1
:09025E0080D712001EC29080D06E
:10032F00010C20010D20010E00010B00010A00013C
:05033F000800010900A7
:1003BF00438901758CFFE4F58AD2A9D2AFD28C2282
:0E03DE00438910758DFFE4F58BD2ABD28E22D1
:03000B000201509F
:04015000C0E0C0D07B
:10015400758CFF758A000508E508C3944040037553
:100164000800E508C3950C502EE50E64036028E5ED
:100174000E64046022E50B701EE50AB4010FE50E5F
:10018400B4020AD2A0C2A1C2A4D2A58029C2A0D21C
:10019400A1D2A4C2A5801FE508C3950C4018E50EA2
:1001A40064036012E50E6404600CE50B7008C2A0E1
:0601B400C2A1C2A4C2A515
:0501BA00D0D0D0E032BE
:03001B000201BF20
:0401BF00C0E0C0D00C
:1001C300758DFF758B000509E509C39440400375E0
:1001D3000900E509C3950D502EE50E64036028E57B
:1001E3000E64046022E50B701EE50AB4010FE50EF0
:1001F300B4010AC2A2D2A3C2A6D2A78029D2A2C2A4
:10020300A3D2A6C2A7801FE509C3950D4018E50E2A
:1002130064036012E50E6404600CE50B7008C2A26F
:06022300C2A3C2A6C2A79F
:05022900D0D0D0E0324E
:10030000E4F50EF50BEF64014E7007750C10750DDA
:100310001022EF64024E7007750C38750D3822EF0D
:0C03200064034E7006750C3F750D3F2203
:10026700E4F50B750E01EF64014E7009F50A750C84
:1002770030750D1022EF64024E700A750A01750C75
:1002870030750D2022EF64034E7009750A01750C55
:0502970030750D30225E
:1002CF00E4F50B750E02EF64014E7007F50A750C1D
:1002DF0010801AEF64024E7008750A01750C2080A9
:1002EF000CEF64034E7009750A01750C30750D30F3
:0102FF0022DC
:10036C00E4F50B750E03C2A0C2A1C2A2C2A3C2A423
:07037C00C2A5C2A6C2A72220
:10038300750B01D2A0C2A1C2A2D2A3C2A4D2A5C29C
:04039300A6D2A72225
:10039700750B01C2A0D2A1C2A2D2A3D2A4C2A5C288
:0403A700A6D2A72211
:1003AB00750B01D2A0C2A1D2A2C2A3C2A4D2A5D264
:0403BB00A6C2A7220D
:0C034400010F0001120001100001110166
:05000300007F2BDFFE71
:0100080022D5
:0803EC007F637E9ADEFEDFFC58
:0103F40022E6
:10035100750E05E5127003020383E512B401030271
:0B0361000397E512B402031203AB2265
:10001E00E50F650E6006850F12850E0F20840620F3
:10002E00850330832820812520822220801F308462
:10003E00097F037E001202CF802F3085047F02805D
:10004E00053083687F017E001202CF805F208431ED
:10005E0020852E20832B20810620820330802230A3
:10006E00800C7F037E001202671203EC803E30810B
:10007E00047F0280053082347F017E001202678089
:10008E002B30840F30850C3083093082063081038B
:10009E0020801230830320820C30831030820D308A
:1000AE00810A3084077F027E00120300E50F650E81
:0600BE00600312000322A2
:10029C0030841A30851730831430821130810E303F
:1002AC00800BE511B401060510E4F5112230840F22
:1002BC0030850C3083093082063081032080037531
:0302CC00110122FB
:030000000200C437
:0C00C400787FE4F6D8FD75811302010B73
:1000D00002022EE493A3F8E493A34003F68001F216
:1000E00008DFF48029E493A3F85407240CC8C33331
:1000F000C4540F4420C8834004F456800146F6DF00
:10010000E4800B010204081020408090032CE47E60
:10011000019360BCA3FF543F30E509541FFEE493F4
:10012000A360010ECF54C025E060A840B8E493A3BB
:10013000FAE493A3F8E493A3C8C582C8CAC583CAE6
:10014000F0A3C8C582C8CAC583CADFE9DEE780BE9E
:0103500000AC
:00000001FF
